:100000000C945D000C9485000C9485000C94850084
:100010000C9485000C9485000C9485000C9485004C
:100020000C9485000C9485000C9485000C9485003C
:100030000C9485000C9485000C9485000C9485002C
:100040000C945D050C9485000C9423050C94E80435
:100050000C9485000C9485000C9485000C9485000C
:100060000C94C1030C9485000000000024002700BC
:100070002A0000000000250028002B0004040404CE
:100080000404040402020202020203030303030342
:10009000010204081020408001020408102001021F
:1000A00004081020000000070002010000030406FD
:1000B0000000000000000000A70511241FBECFEFC4
:1000C000D8E0DEBFCDBF11E0A0E0B1E0EEE0F2E1AC
:1000D00002C005900D92A032B107D9F722E0A0E24C
:1000E000B1E001C01D92A13DB207E1F710E0CDE5FE
:1000F000D0E004C02197FE010E94FF08CC35D10753
:10010000C9F70E9469060C94A5080C940000309170
:10011000D801313208F047C08091B4018111FCCF81
:100120009091D70122E02093B40121E02093B30104
:100130002FEF2093B2011092B1013093B001E7EBA1
:10014000F1E0A0E9B1E020E0321721F041914D93B8
:100150002F5FFACF10928F0120918F01990F922B70
:1001600090938F0190918E01913041F410928E0105
:1001700090918F019093BB0095EC01C095EE909308
:10018000BC009091B4019230E1F39091B2019F3F95
:1001900079F08091B201803241F08091B2018033D8
:1001A00031F084E005C081E003C082E001C083E05B
:1001B0001092B6011092D8011092B501089585ED04
:1001C0008093BC008091BC0084FDFCCF1092B401F0
:1001D0000895613298F42091B401243089F4609339
:1001E0006B01282FABE4B1E0FC018E2F821B861738
:1001F00018F481918D93F9CF80E0089581E00895FE
:1002000082E008950895CF92DF92EF92FF920F93CC
:100210001F93CF93DF936C01EB017B01E40EF51E7E
:1002200000E010E0CE15DF0561F06991D601ED9197
:10023000FC910190F081E02DC6010995080F191F6E
:10024000F1CFC801DF91CF911F910F91FF90EF90F7
:10025000DF90CF9008950895E0914A01809149017F
:10026000E81730F4F0E0E75DFE4F808190E00895FC
:100270008FEF9FEF089590914A018091490198175F
:1002800050F4E92FF0E0E75DFE4F208130E09F5F02
:1002900090934A0102C02FEF3FEFC901089580916A
:1002A000490190E020914A01821B91090895CF9263
:1002B000DF92EF92FF920F931F93CF93DF937C0116
:1002C000CB018A012091B501222389F0EB016B015A
:1002D000C40ED51ECC15DD0569F06991D701ED91ED
:1002E000FC910190F081E02DC7010995F3CF642FB7
:1002F0000E94E900C801DF91CF911F910F91FF90FB
:10030000EF90DF90CF900895CF93DF931F92CDB7FA
:10031000DEB769832091B5012223D1F02091D80165
:10032000203240F021E030E0FC013383228380E082
:1003300090E015C08091B601E82FF0E0E954FE4F3F
:10034000998190838F5F8093B6018093D80105C017
:1003500061E0CE0101960E94E90081E090E00F90FB
:10036000DF91CF910895682F89ED91E00C9484017D
:10037000CF93C62F9091D00221E02093B5019093A6
:10038000D7011092B6011092D801682F89ED91E043
:100390000E9484016C2F89ED91E00E948401CF912D
:1003A0000C9487000F931F93CF93DF93042FD52FC7
:1003B000122FC32FFC01808191E09093B5018093AF
:1003C000D7011092B6011092D801F4E06F9FB001EE
:1003D00011246A5F7F4F89ED91E00E948401802F94
:1003E0009D2F0E94B3018D2F90E00E94B301812FB9
:1003F0009C2F0E94B3018C2F90E00E94B301DF91EB
:10040000CF911F910F910C94870020E030E040E0E5
:1004100050E0CD960C94D201FC0180E1689F9001E0
:1004200011248381948140E050E06081CD960C944A
:10043000D2010F931F93CF93DF93FC01A685B7855D
:100440008D01005C1F4FE8018881998101968F73AF
:100450009927AD014E5B5F4FEA012881398128174A
:100460003907D1F3E80128813981A20FB31F6C93BA
:10047000A685B785A05CBF4F11969C938E93A689E5
:10048000B7892C9181E090E0078C02C0880F991FFA
:100490000A94E2F7822B8C9381E081A30488F5898A
:1004A000E02D80818064808381E090E0DF91CF91B6
:1004B0001F910F910895FC0181A1882329F0A4893F
:1004C000B5898C9186FFFBCF11A20895FC01A4850C
:1004D000B585FD01E05CFF4F20813181329680813E
:1004E00091812817390779F080819181A80FB91F70
:1004F0008C91208131812F5F3F4F2F7333273183C0
:10050000208390E008958FEF9FEF0895DC011C9603
:10051000ED91FC911D97DF01A05CBF4F2D913C91A7
:10052000119712968D919C9111972817390739F0E0
:100530008D919C91E80FF91F808190E008958FEFD5
:100540009FEF0895FC0124853585F901E05CFF4F9C
:1005500080819181329620813181821B930B8F7330
:10056000992708958DE692E00C94A20290E0FC0198
:10057000EC55FF4F2491FC01E057FF4F3491FC01F3
:10058000E458FF4FE491EE2309F43CC0222339F1F3
:10059000233091F038F42130A9F0223001F584B5F0
:1005A0008F7D12C0263091F02730A1F02430B9F4AD
:1005B000809180008F7D03C0809180008F77809331
:1005C00080000DC084B58F7784BD09C08091B000D4
:1005D0008F7703C08091B0008F7D8093B000F0E0F2
:1005E000EE0FFF1FEE58FF4FA591B4919FB7F894FF
:1005F000611104C08C913095382302C0EC913E2BE0
:100600003C939FBF08951092B40181E08093B301A1
:1006100010928E0161E082E10E94B60261E083E106
:100620000E94B602E9EBF0E080818E7F80838081BA
:100630008D7F808388E48093B80085E48093BC003C
:100640000895CF93DF9390E0FC01E057FF4F249192
:10065000FC01E458FF4F8491882361F190E0880FFA
:10066000991FFC01E859FF4FC591D491FC01EE5848
:10067000FF4FA591B491611109C09FB7F89488818B
:10068000209582238883EC912E230BC0623061F485
:100690009FB7F8948881322F309583238883EC911B
:1006A0002E2B2C939FBF06C08FB7F894E8812E2B7A
:1006B00028838FBFDF91CF9108953FB7F894809141
:1006C000250190912601A0912701B091280126B51E
:1006D000A89B05C02F3F19F00196A11DB11D3FBF7A
:1006E000BA2FA92F982F8827820F911DA11DB11D08
:1006F000BC01CD0142E0660F771F881F991F4A9504
:10070000D1F70895CF92DF92EF92FF92CF93DF93CC
:100710006B017C010E945D03EB01C114D104E10473
:10072000F10479F00E945D036C1B7D0B683E734001
:10073000A0F381E0C81AD108E108F108C851DC4FE4
:10074000ECCFDF91CF91FF90EF90DF90CF900895A5
:10075000CF93DF93EC018B819C8120E030E040E07F
:1007600050E06A81CD960E94D2018B819C8120E06D
:1007700030E040E050E16981CD96DF91CF910C945B
:10078000D2011F920F920FB60F9211242F933F9315
:100790004F935F936F937F938F939F93AF93BF9389
:1007A000EF93FF938091B900887F803609F49CC055
:1007B00068F5883209F45BC090F4803109F454C0C4
:1007C00038F4882309F4EFC0883009F44DC0EFC035
:1007D000883109F44CC0803209F45DC0E8C080342F
:1007E00009F468C048F4803309F455C0883309F02F
:1007F000DEC08093B201D1C0803509F44FC0883586
:1008000009F45DC0883409F0D2C0CFC0883909F43A
:10081000C0C0A8F4883709F467C038F4883609F4F2
:1008200063C0803709F460C0C2C0883809F4B1C021
:10083000803909F45FC0803809F0B9C05BC0803BE3
:1008400009F481C038F4803A09F466C0883A09F4A2
:100850007AC0ADC0803C09F4A0C0883C09F49DC0BA
:10086000883B09F483C0A3C080918F0110C0909190
:10087000B1018091B001981770F5E091B10181E06C
:100880008E0F8093B101F0E0E057FE4F808180939E
:10089000BB0085EC7FC08093B20187C0E091B101BD
:1008A00081E08E0F8093B1018091BB00F0E0E057B2
:1008B000FE4F80839091B1018091B00167C0E091BB
:1008C000B10181E08E0F8093B1018091BB00F0E017
:1008D000E057FE4F80838091B301811166C081E0B3
:1008E00080938E0184EA5AC083E08093B401109211
:1008F0008D01CFCF80918D01803208F04AC0E09108
:100900008D0181E08E0F80938D018091BB00F0E01E
:10091000E359FE4F8083BDCF80918D01803230F44A
:10092000E0918D01F0E0E359FE4F10820E94DF005C
:1009300060918D0170E08DE691E0E0E0F0E00995D6
:1009400010928D012AC084E08093B40110926C0152
:1009500010926B01E0E0F0E0099580916B0181114C
:1009600005C081E080936B0110924B01E0916C0116
:1009700081E08E0F80936C01F0E0E55BFE4F80819B
:100980008093BB0090916C0180916B01981708F4E3
:1009900080CF85E88093BC000AC085EC8093BC00C2
:1009A0001092B40104C01092B2010E94DF00FF91C6
:1009B000EF91BF91AF919F918F917F916F915F91D7
:1009C0004F913F912F910F900FBE0F901F90189550
:1009D0001F920F920FB60F9211242F933F938F9374
:1009E0009F93EF93FF9320912502309126028091EF
:1009F0002702909128022817390731F48091C1000D
:100A00008F7D8093C10014C0E0912702F0912802ED
:100A1000EB51FE4F20818091270290912802019690
:100A20008F73992790932802809327022093C60002
:100A3000FF91EF919F918F913F912F910F900FBE5A
:100A40000F901F9018951F920F920FB60F921124BE
:100A50002F934F935F938F939F93EF93FF93809187
:100A6000C00082FD1CC02091C60080916902909157
:100A70006A0240916B0250916C0201968F73992724
:100A80004817590771F0E0916902F0916A02E75D39
:100A9000FD4F208390936A028093690202C0809187
:100AA000C600FF91EF919F918F915F914F912F9190
:100AB0000F900FBE0F901F9018951F920F920FB6B8
:100AC0000F9211242F933F938F939F93AF93BF93D4
:100AD0008091210190912201A0912301B0912401E4
:100AE0003091200123E0230F2D3720F40196A11D22
:100AF000B11D05C026E8230F0296A11DB11D20934C
:100B000020018093210190932201A0932301B093AF
:100B100024018091250190912601A0912701B09197
:100B200028010196A11DB11D8093250190932601F6
:100B3000A0932701B0932801BF91AF919F918F910E
:100B40003F912F910F900FBE0F901F90189510920C
:100B5000DC011092DB0188EE93E0A0E0B0E080932E
:100B6000DD019093DE01A093DF01B093E00124E06A
:100B700031E03093DA012093D90110927002109283
:100B80006F028093710290937202A0937302B093EC
:100B9000740284E191E090936E0280936D0289E289
:100BA00092E090937A028093790285EE91E090939F
:100BB0007C0280937B0285EC90E090937E02809390
:100BC0007D0284EC90E09093800280937F0280EC21
:100BD00090E0909382028093810281EC90E0909368
:100BE00084028093830282EC90E09093860280934B
:100BF000850286EC90E0909388028093870284E0DF
:100C00008093890283E080938A0287E080938B023D
:100C100085E080938C0281E080938D02E3E9F2E02D
:100C20008BEA92E011861086128617821682158250
:100C300036968E179F07B1F71092BC021092BF0232
:100C40001092BB021092BA021092CC021092CF0204
:100C50001092CB021092CA0280E680939502809394
:100C6000D00280919D02811111C010929D0283E9F2
:100C700092E090939C0280939B0288E0809398027C
:100C80008AE08093990289E080939A0288E992E051
:100C900090939202809391028091A302811112C0DD
:100CA00081E08093A30283E992E09093A202809373
:100CB000A1028DE080939E028BE080939F028CE0E6
:100CC0008093A0028EE992E09093900280938F022D
:100CD0000895789484B5826084BD84B5816084BDB4
:100CE00085B5826085BD85B5816085BD80916E00CA
:100CF000816080936E0010928100809181008260FB
:100D00008093810080918100816080938100809137
:100D100080008160809380008091B1008460809326
:100D2000B1008091B00081608093B00080917A0022
:100D3000846080937A0080917A00826080937A0048
:100D400080917A00816080937A0080917A00806837
:100D500080937A001092C100E0918102F0918202AA
:100D600081E090E09C0100908D0202C0220F331FB1
:100D70000A94E2F72083E0917D02F0917E021082D6
:100D8000E0917F02F09180022FEC208310928E027E
:100D9000E0918302F091840240819C0100908902DD
:100DA00002C0220F331F0A94E2F7242B2083E09124
:100DB0008302F091840240819C0100908A0202C06B
:100DC000220F331F0A94E2F7242B2083E091830241
:100DD000F091840240819C0100908B0202C0220F9E
:100DE000331F0A94E2F7242B2083E0918302F091D1
:100DF0008402208100908C0202C0880F991F0A94FF
:100E0000E2F780958223808389ED91E090939402AC
:100E10008093930210924A01109249011092B601F8
:100E20001092D8010E9403030E94030360E080E057
:100E30000E94B80180E496E0909397028093960216
:100E40008091D00291E09093B5018093D7011092E8
:100E5000B6011092D80160E089ED91E00E94840112
:100E60000E9487008091D0029091B4019111FCCF33
:100E700091E09093B4019093B3012FEF2093B201CE
:100E80001092B1011092B00190938F0190918F0157
:100E9000880F892B80938F0180918E01813041F4DE
:100EA00010928E0180918F018093BB0085EC01C070
:100EB00085EE8093BC008091B4018130E1F3809194
:100EC000B101811103C09091B10101C091E0A0E98D
:100ED000B1E0E9E2F1E080E0891721F02D91219362
:100EE0008F5FFACF10924A018093490189ED91E01A
:100EF0000E943B01C82F682F6F76606180E00E94DE
:100F0000B80163E08EEF0E94B8016C2F80E00E9470
:100F1000B80165E070E080E090E00E9482036C2FF1
:100F2000616A80E00E94B801C0E020E030E040E06B
:100F300050E06C2F80ED92E00E94D201CF5FC03173
:100F4000A1F7C0919102D091920260E0CE010E947F
:100F50000C02CE010E94A80369818B819C810E94B2
:100F600005026A818B819C810E94050260E08EE00F
:100F70000E94210361E08CE00E942103C0918F0256
:100F8000D091900260E0CE010E940C02CE010E943E
:100F9000A80369818B819C810E9405026A818B81F3
:100FA0009C810E94050260E08EE00E94210390E493
:100FB000892E412C22E0522E612C712C30EBA32E75
:100FC00030E0B32E80927C0080917A008064809320
:100FD0007A0080917A0086FDFCCFA0917800809104
:100FE0007900B0E0B82B24EB30E00E94F808A301B0
:100FF00092010E94A808C22F932E022F132F0B30AC
:1010000011050CF497C061E070E080E090E00E9470
:101010008203C0909102D0909202C6010E94A80360
:1010200080ECE82E88E0F82EF60183819481970108
:1010300040E050E06081CD960E94D201F0E1EF0ED9
:10104000F11C80EFE8168FE0F80671F761E08CE0A4
:101050000E9421030F3F110511F461E046C0F50124
:101060008491833009F148F48130C9F08230C1F5B0
:1010700084B5806284BDC8BD3BC0863009F187302D
:1010800039F1843069F5809180008062809380001E
:101090008C2F992D90938B0080938A0029C084B562
:1010A000806884BDC7BD24C0809180008068809323
:1010B00080008C2F992D909389008093880018C010
:1010C0008091B00080688093B000C093B30010C0DE
:1010D0008091B00080628093B000C093B40008C0DB
:1010E000003811050CF0B9CF60E08CE00E94B60228
:1010F000C0919102D091920269818B819C810E9462
:1011000005026A818B819C810E940502C0918F0239
:10111000D091900269818B819C810E9405026A8135
:101120008B819C810E94050261E070E080E090E08C
:101130000E94820361E08CE00E94210360E08CE069
:101140000E94B6020E94B2023DCFF8940C940509A9
:10115000052E97FB1EF400940E94BF0857FD07D090
:101160000E94C70807FC03D04EF40C94BF085095AA
:101170004095309521953F4F4F4F5F4F0895909583
:101180008095709561957F4F8F4F9F4F0895A1E295
:101190001A2EAA1BBB1BFD010DC0AA1FBB1FEE1FF1
:1011A000FF1FA217B307E407F50720F0A21BB30B3C
:1011B000E40BF50B661F771F881F991F1A9469F7B8
:1011C00060957095809590959B01AC01BD01CF0114
:1011D0000895A29FB001B39FC001A39F700D811D10
:1011E0001124911DB29F700D811D1124911D089530
:1011F0000E94E908B7FF0895821B930B0895EE0F34
:0E120000FF1F0590F491E02D0994F894FFCFA4
:10120E0000000000840157014F013B012C012B010E
:10121E000000000019020301A202660286025B02B0
:00000001FF
